{
  "_format": "hh-sol-artifact-1",
  "contractName": "Voting",
  "sourceName": "contracts/Voting.sol",
  "abi": [
    {
      "inputs": [],
      "stateMutability": "nonpayable",
      "type": "constructor"
    },
    {
      "anonymous": false,
      "inputs": [
        {
          "indexed": false,
          "internalType": "uint256",
          "name": "id",
          "type": "uint256"
        },
        {
          "indexed": false,
          "internalType": "string",
          "name": "name",
          "type": "string"
        }
      ],
      "name": "CandidateAdded",
      "type": "event"
    },
    {
      "anonymous": false,
      "inputs": [],
      "name": "ElectionEnded",
      "type": "event"
    },
    {
      "anonymous": false,
      "inputs": [],
      "name": "ElectionStarted",
      "type": "event"
    },
    {
      "anonymous": false,
      "inputs": [
        {
          "indexed": false,
          "internalType": "address",
          "name": "voter",
          "type": "address"
        },
        {
          "indexed": false,
          "internalType": "uint256",
          "name": "candidateId",
          "type": "uint256"
        }
      ],
      "name": "Voted",
      "type": "event"
    },
    {
      "anonymous": false,
      "inputs": [
        {
          "indexed": false,
          "internalType": "address",
          "name": "voter",
          "type": "address"
        }
      ],
      "name": "VoterRegistered",
      "type": "event"
    },
    {
      "inputs": [
        {
          "internalType": "string",
          "name": "_name",
          "type": "string"
        }
      ],
      "name": "addCandidate",
      "outputs": [],
      "stateMutability": "nonpayable",
      "type": "function"
    },
    {
      "inputs": [],
      "name": "admin",
      "outputs": [
        {
          "internalType": "address",
          "name": "",
          "type": "address"
        }
      ],
      "stateMutability": "view",
      "type": "function"
    },
    {
      "inputs": [],
      "name": "candidateCount",
      "outputs": [
        {
          "internalType": "uint256",
          "name": "",
          "type": "uint256"
        }
      ],
      "stateMutability": "view",
      "type": "function"
    },
    {
      "inputs": [
        {
          "internalType": "uint256",
          "name": "",
          "type": "uint256"
        }
      ],
      "name": "candidates",
      "outputs": [
        {
          "internalType": "uint256",
          "name": "id",
          "type": "uint256"
        },
        {
          "internalType": "string",
          "name": "name",
          "type": "string"
        },
        {
          "internalType": "uint256",
          "name": "voteCount",
          "type": "uint256"
        }
      ],
      "stateMutability": "view",
      "type": "function"
    },
    {
      "inputs": [],
      "name": "electionEnded",
      "outputs": [
        {
          "internalType": "bool",
          "name": "",
          "type": "bool"
        }
      ],
      "stateMutability": "view",
      "type": "function"
    },
    {
      "inputs": [],
      "name": "electionStarted",
      "outputs": [
        {
          "internalType": "bool",
          "name": "",
          "type": "bool"
        }
      ],
      "stateMutability": "view",
      "type": "function"
    },
    {
      "inputs": [],
      "name": "endElection",
      "outputs": [],
      "stateMutability": "nonpayable",
      "type": "function"
    },
    {
      "inputs": [
        {
          "internalType": "address",
          "name": "",
          "type": "address"
        }
      ],
      "name": "hasVoted",
      "outputs": [
        {
          "internalType": "bool",
          "name": "",
          "type": "bool"
        }
      ],
      "stateMutability": "view",
      "type": "function"
    },
    {
      "inputs": [
        {
          "internalType": "address",
          "name": "",
          "type": "address"
        }
      ],
      "name": "isRegistered",
      "outputs": [
        {
          "internalType": "bool",
          "name": "",
          "type": "bool"
        }
      ],
      "stateMutability": "view",
      "type": "function"
    },
    {
      "inputs": [
        {
          "internalType": "address",
          "name": "_voter",
          "type": "address"
        }
      ],
      "name": "registerVoter",
      "outputs": [],
      "stateMutability": "nonpayable",
      "type": "function"
    },
    {
      "inputs": [],
      "name": "startElection",
      "outputs": [],
      "stateMutability": "nonpayable",
      "type": "function"
    },
    {
      "inputs": [
        {
          "internalType": "uint256",
          "name": "_candidateId",
          "type": "uint256"
        }
      ],
      "name": "vote",
      "outputs": [],
      "stateMutability": "nonpayable",
      "type": "function"
    }
  ],
  "bytecode": "0x608060405234801561001057600080fd5b50336000806101000a81548173ffffffffffffffffffffffffffffffffffffffff021916908373ffffffffffffffffffffffffffffffffffffffff160217905550611780806100606000396000f3fe608060405234801561001057600080fd5b50600436106100b45760003560e01c806362d73eb81161007157806362d73eb814610179578063a9a981a314610183578063c3c5a547146101a1578063c94ca9e3146101d1578063d5346da1146101ef578063f851a4401461020d576100b4565b80630121b93f146100b957806309eef43e146100d55780633477ee2e1461010557806338db6dd314610137578063462e91ec1461015357806359f784681461016f575b600080fd5b6100d360048036038101906100ce9190610cae565b61022b565b005b6100ef60048036038101906100ea9190610d39565b6104f4565b6040516100fc9190610d81565b60405180910390f35b61011f600480360381019061011a9190610cae565b610514565b60405161012e93929190610e3b565b60405180910390f35b610151600480360381019061014c9190610d39565b6105c6565b005b61016d60048036038101906101689190610fae565b6107c3565b005b610177610957565b005b610181610acd565b005b61018b610bf4565b6040516101989190610ff7565b60405180910390f35b6101bb60048036038101906101b69190610d39565b610bfa565b6040516101c89190610d81565b60405180910390f35b6101d9610c1a565b6040516101e69190610d81565b60405180910390f35b6101f7610c2d565b6040516102049190610d81565b60405180910390f35b610215610c40565b6040516102229190611021565b60405180910390f35b600460003373ffffffffffffffffffffffffffffffffffffffff1673ffffffffffffffffffffffffffffffffffffffff16815260200190815260200160002060009054906101000a900460ff166102b7576040517f08c379a00000000000000000000000000000000000000000000000000000000081526004016102ae90611088565b60405180910390fd5b600260009054906101000a900460ff16610306576040517f08c379a00000000000000000000000000000000000000000000000000000000081526004016102fd906110f4565b60405180910390fd5b600260019054906101000a900460ff1615610356576040517f08c379a000000000000000000000000000000000000000000000000000000000815260040161034d90611160565b60405180910390fd5b600560003373ffffffffffffffffffffffffffffffffffffffff1673ffffffffffffffffffffffffffffffffffffffff16815260200190815260200160002060009054906101000a900460ff16156103e3576040517f08c379a00000000000000000000000000000000000000000000000000000000081526004016103da906111cc565b60405180910390fd5b6000811180156103f557506001548111155b610434576040517f08c379a000000000000000000000000000000000000000000000000000000000815260040161042b90611238565b60405180910390fd5b6001600560003373ffffffffffffffffffffffffffffffffffffffff1673ffffffffffffffffffffffffffffffffffffffff16815260200190815260200160002060006101000a81548160ff0219169083151502179055506003600082815260200190815260200160002060020160008154809291906104b390611287565b91905055507f4d99b957a2bc29a30ebd96a7be8e68fe50a3c701db28a91436490b7d53870ca433826040516104e99291906112cf565b60405180910390a150565b60056020528060005260406000206000915054906101000a900460ff1681565b600360205280600052604060002060009150905080600001549080600101805461053d90611327565b80601f016020809104026020016040519081016040528092919081815260200182805461056990611327565b80156105b65780601f1061058b576101008083540402835291602001916105b6565b820191906000526020600020905b81548152906001019060200180831161059957829003601f168201915b5050505050908060020154905083565b60008054906101000a900473ffffffffffffffffffffffffffffffffffffffff1673ffffffffffffffffffffffffffffffffffffffff163373ffffffffffffffffffffffffffffffffffffffff1614610654576040517f08c379a000000000000000000000000000000000000000000000000000000000815260040161064b906113a4565b60405180910390fd5b600260009054906101000a900460ff16156106a4576040517f08c379a000000000000000000000000000000000000000000000000000000000815260040161069b90611410565b60405180910390fd5b600460008273ffffffffffffffffffffffffffffffffffffffff1673ffffffffffffffffffffffffffffffffffffffff16815260200190815260200160002060009054906101000a900460ff1615610731576040517f08c379a00000000000000000000000000000000000000000000000000000000081526004016107289061147c565b60405180910390fd5b6001600460008373ffffffffffffffffffffffffffffffffffffffff1673ffffffffffffffffffffffffffffffffffffffff16815260200190815260200160002060006101000a81548160ff0219169083151502179055507fb6be2187d059cc2a55fe29e0e503b566e1e0f8c8780096e185429350acffd3dd816040516107b89190611021565b60405180910390a150565b60008054906101000a900473ffffffffffffffffffffffffffffffffffffffff1673ffffffffffffffffffffffffffffffffffffffff163373ffffffffffffffffffffffffffffffffffffffff1614610851576040517f08c379a0000000000000000000000000000000000000000000000000000000008152600401610848906113a4565b60405180910390fd5b600260009054906101000a900460ff16156108a1576040517f08c379a000000000000000000000000000000000000000000000000000000000815260040161089890611410565b60405180910390fd5b600160008154809291906108b490611287565b919050555060405180606001604052806001548152602001828152602001600081525060036000600154815260200190815260200160002060008201518160000155602082015181600101908161090b9190611648565b50604082015181600201559050507fe83b2a43e7e82d975c8a0a6d2f045153c869e111136a34d1889ab7b598e396a36001548260405161094c92919061171a565b60405180910390a150565b60008054906101000a900473ffffffffffffffffffffffffffffffffffffffff1673ffffffffffffffffffffffffffffffffffffffff163373ffffffffffffffffffffffffffffffffffffffff16146109e5576040517f08c379a00000000000000000000000000000000000000000000000000000000081526004016109dc906113a4565b60405180910390fd5b600260009054906101000a900460ff16610a34576040517f08c379a0000000000000000000000000000000000000000000000000000000008152600401610a2b906110f4565b60405180910390fd5b600260019054906101000a900460ff1615610a84576040517f08c379a0000000000000000000000000000000000000000000000000000000008152600401610a7b90611160565b60405180910390fd5b6001600260016101000a81548160ff0219169083151502179055507f66ec723071e4bb646f7b35d31bc2dee8510979bd8c180edd0690d4f5e802f1e460405160405180910390a1565b60008054906101000a900473ffffffffffffffffffffffffffffffffffffffff1673ffffffffffffffffffffffffffffffffffffffff163373ffffffffffffffffffffffffffffffffffffffff1614610b5b576040517f08c379a0000000000000000000000000000000000000000000000000000000008152600401610b52906113a4565b60405180910390fd5b600260009054906101000a900460ff1615610bab576040517f08c379a0000000000000000000000000000000000000000000000000000000008152600401610ba290611410565b60405180910390fd5b6001600260006101000a81548160ff0219169083151502179055507fc475c26aa25ed8e85a7faa790e5f63b5d7ee1025f12821f4c9bfddd36ab4d11260405160405180910390a1565b60015481565b60046020528060005260406000206000915054906101000a900460ff1681565b600260019054906101000a900460ff1681565b600260009054906101000a900460ff1681565b60008054906101000a900473ffffffffffffffffffffffffffffffffffffffff1681565b6000604051905090565b600080fd5b600080fd5b6000819050919050565b610c8b81610c78565b8114610c9657600080fd5b50565b600081359050610ca881610c82565b92915050565b600060208284031215610cc457610cc3610c6e565b5b6000610cd284828501610c99565b91505092915050565b600073ffffffffffffffffffffffffffffffffffffffff82169050919050565b6000610d0682610cdb565b9050919050565b610d1681610cfb565b8114610d2157600080fd5b50565b600081359050610d3381610d0d565b92915050565b600060208284031215610d4f57610d4e610c6e565b5b6000610d5d84828501610d24565b91505092915050565b60008115159050919050565b610d7b81610d66565b82525050565b6000602082019050610d966000830184610d72565b92915050565b610da581610c78565b82525050565b600081519050919050565b600082825260208201905092915050565b60005b83811015610de5578082015181840152602081019050610dca565b60008484015250505050565b6000601f19601f8301169050919050565b6000610e0d82610dab565b610e178185610db6565b9350610e27818560208601610dc7565b610e3081610df1565b840191505092915050565b6000606082019050610e506000830186610d9c565b8181036020830152610e628185610e02565b9050610e716040830184610d9c565b949350505050565b600080fd5b600080fd5b7f4e487b7100000000000000000000000000000000000000000000000000000000600052604160045260246000fd5b610ebb82610df1565b810181811067ffffffffffffffff82111715610eda57610ed9610e83565b5b80604052505050565b6000610eed610c64565b9050610ef98282610eb2565b919050565b600067ffffffffffffffff821115610f1957610f18610e83565b5b610f2282610df1565b9050602081019050919050565b82818337600083830152505050565b6000610f51610f4c84610efe565b610ee3565b905082815260208101848484011115610f6d57610f6c610e7e565b5b610f78848285610f2f565b509392505050565b600082601f830112610f9557610f94610e79565b5b8135610fa5848260208601610f3e565b91505092915050565b600060208284031215610fc457610fc3610c6e565b5b600082013567ffffffffffffffff811115610fe257610fe1610c73565b5b610fee84828501610f80565b91505092915050565b600060208201905061100c6000830184610d9c565b92915050565b61101b81610cfb565b82525050565b60006020820190506110366000830184611012565b92915050565b7f4e6f742072656769737465726564000000000000000000000000000000000000600082015250565b6000611072600e83610db6565b915061107d8261103c565b602082019050919050565b600060208201905081810360008301526110a181611065565b9050919050565b7f456c656374696f6e206e6f742073746172746564000000000000000000000000600082015250565b60006110de601483610db6565b91506110e9826110a8565b602082019050919050565b6000602082019050818103600083015261110d816110d1565b9050919050565b7f456c656374696f6e20616c726561647920656e64656400000000000000000000600082015250565b600061114a601683610db6565b915061115582611114565b602082019050919050565b600060208201905081810360008301526111798161113d565b9050919050565b7f416c726561647920766f74656400000000000000000000000000000000000000600082015250565b60006111b6600d83610db6565b91506111c182611180565b602082019050919050565b600060208201905081810360008301526111e5816111a9565b9050919050565b7f496e76616c69642063616e646964617465000000000000000000000000000000600082015250565b6000611222601183610db6565b915061122d826111ec565b602082019050919050565b6000602082019050818103600083015261125181611215565b9050919050565b7f4e487b7100000000000000000000000000000000000000000000000000000000600052601160045260246000fd5b600061129282610c78565b91507fffffffffffffffffffffffffffffffffffffffffffffffffffffffffffffffff82036112c4576112c3611258565b5b600182019050919050565b60006040820190506112e46000830185611012565b6112f16020830184610d9c565b9392505050565b7f4e487b7100000000000000000000000000000000000000000000000000000000600052602260045260246000fd5b6000600282049050600182168061133f57607f821691505b602082108103611352576113516112f8565b5b50919050565b7f4e6f742061646d696e0000000000000000000000000000000000000000000000600082015250565b600061138e600983610db6565b915061139982611358565b602082019050919050565b600060208201905081810360008301526113bd81611381565b9050919050565b7f456c656374696f6e20616c726561647920737461727465640000000000000000600082015250565b60006113fa601883610db6565b9150611405826113c4565b602082019050919050565b60006020820190508181036000830152611429816113ed565b9050919050565b7f416c726561647920726567697374657265640000000000000000000000000000600082015250565b6000611466601283610db6565b915061147182611430565b602082019050919050565b6000602082019050818103600083015261149581611459565b9050919050565b60008190508160005260206000209050919050565b60006020601f8301049050919050565b600082821b905092915050565b6000600883026114fe7fffffffffffffffffffffffffffffffffffffffffffffffffffffffffffffffff826114c1565b61150886836114c1565b95508019841693508086168417925050509392505050565b6000819050919050565b600061154561154061153b84610c78565b611520565b610c78565b9050919050565b6000819050919050565b61155f8361152a565b61157361156b8261154c565b8484546114ce565b825550505050565b600090565b61158861157b565b611593818484611556565b505050565b5b818110156115b7576115ac600082611580565b600181019050611599565b5050565b601f8211156115fc576115cd8161149c565b6115d6846114b1565b810160208510156115e5578190505b6115f96115f1856114b1565b830182611598565b50505b505050565b600082821c905092915050565b600061161f60001984600802611601565b1980831691505092915050565b6000611638838361160e565b9150826002028217905092915050565b61165182610dab565b67ffffffffffffffff81111561166a57611669610e83565b5b6116748254611327565b61167f8282856115bb565b600060209050601f8311600181146116b257600084156116a0578287015190505b6116aa858261162c565b865550611712565b601f1984166116c08661149c565b60005b828110156116e8578489015182556001820191506020850194506020810190506116c3565b868310156117055784890151611701601f89168261160e565b8355505b6001600288020188555050505b505050505050565b600060408201905061172f6000830185610d9c565b81810360208301526117418184610e02565b9050939250505056fea2646970667358221220c6385b907999c13423271dbbc3fba1d88ff71a297215042fee1255178a0800f964736f6c63430008140033",
  "linkReferences": {},
  "deployedLinkReferences": {}
}